:020000040000FA
:06000000000080312728FA
:100008007E1480314E01101C0A280B281A28101063
:10001800FE3044018D00CC308C0001304101BC071A
:100028000030BD3D0030BE3D0030BF3D7E01BF1EEB
:100038001E281F282028BF12BF1C23282428252853
:10004800BF107E10090040010308A00080312C2851
:1000580094308400873085004B308600003087005C
:1000680013308731D4278031213084000030850057
:100078002A308731DA278031A030840000308500AB
:1000880020308731DA2780317E10400180314C28BA
:100098008531DD2580318431E22480318731CD27D7
:1000A800803111307D01C60016307E01A10010306C
:1000B8007D01C50015307E01A0008731BD27803144
:1000C80000304001E1000530E0005730DF003030FB
:1000D800DE008531AF25803186317B268031843141
:1000E800902480318531282580316400003040011A
:1000F8008C1A0130C600460845060319842885284D
:1001080094288731B327803173084101BB007208F6
:10011800BA007108B9007008B8004001C401C40AE7
:1001280041013B08F3003A08F2003908F1003808A9
:10013800F00087316A2780317308031DAF287208E1
:10014800031DAF287108031DAF2805307002031C7A
:10015800AE28AF28CE2840014608031DB428B5288C
:10016800CD28023044060319BA28BB28C72887318E
:10017800B327803173084101B7007208B6007108CF
:10018800B5007008B40002304001EE006E08C400EB
:10019800CE28C40140014608EE006E08C5000230B2
:1001A8004406031DD828D928232941013708F3001C
:1001B8003608F2003508F1003408F00087316A2764
:1001C80080317308031DF4287208031DF428710890
:1001D800031DF42855307002031CF328F428212944
:1001E80040014208031DF928FA2821294808031963
:1001F800FE280029013001290030EE006E08C800F1
:1002080048080319082909290E29941212118E1673
:100218000C151E299416121503305D06031D1529A9
:1002280016291E296430EE006E08F1000930873166
:10023800802780314001C201C20A4001DC01440824
:10024800031D2729282978295C08031D2C292D2915
:1002580074294808031931293229742941013708BA
:10026800F3003608F2003508F1003408F000873151
:100278006A2780317308031D4C297208031D4C2915
:100288007108031D4C293330700203184C294D297D
:10029800742940014308031D522953295F298731D6
:1002A800B327803173084101B3007208B2007108A6
:1002B800B1007008B00001304001EE006E08C307BD
:1002C80002304306031D69296A2974292408031D7D
:1002D8006E296F2974290130EE006E08DD07742934
:1002E8004001DC01DC0AC20141013308F300320895
:1002F800F2003108F1003008F00087316A278031B8
:100308007308031D93297208031D93297108031D9F
:10031800932933307002031C9229932995294001AF
:10032800C301823105228031873120278031400185
:100338004808031DA029A129C72912302202031C3D
:10034800A629A729BA291B3022020318AC29AD29EE
:10035800BA2912110C1547080319B329B529013018
:10036800B6290030EE006E08C700C72947080319F0
:10037800BE29BF29C729123022020318C429C5295A
:10038800C7291215AF2933304A020318CC29CD29C1
:10039800D1290230EE006E08DD002408031DD5299E
:1003A800D629DF2948080319DA29DB29E229863109
:1003B80008268031E2298231FC2280314001470839
:1003C800031DE729E82979284808031DEC29ED29A8
:1003D80079282408031DF129F22979284408031DE6
:1003E800F629F72979284908031DFB29FC297928CA
:1003F80087315427803164006300010079288031F7
:10040800272840014908031D0A2A0B2A292A863170
:10041800C226823187313A2782319130FC007C082C
:10042800F10002308731802782318731B32782314A
:1004380073084101AF007208AE007108AD00700882
:10044800AC004001C901C90A872A4903031D2D2AA6
:100458002E2A632A41012F08F3002E08F2002D08E6
:10046800F1002C08F00087316A2782317308031DD8
:10047800492A7208031D492A7108031D492A503068
:100488007002031C482A492A872A0E3086313226F0
:1004980082317308FC007C084001CA000230FC006D
:1004A8007C08C9008731B327823173084101AF0046
:1004B8007208AE007108AD007008AC00872A0230DF
:1004C8004906031D682A692A842A41012F08F30076
:1004D8002E08F2002D08F1002C08F00087316A2759
:1004E80082317308031D842A7208031D842A710847
:1004F800031D842A14307002031C832A842A872A45
:100508004001C901872A080040014A08E800680834
:10051800FD0063307D02031C922A932A972A6230D9
:10052800E8006808FD007D08E800E9016808E200C5
:100538006908E300E4016230EA006A08E500E601C0
:100548007F30EB006B08E700863157268231400187
:10055800EC006C08FD0040307D020318B42AB52A6F
:10056800D42A7D08E800E9016808E2006908E30088
:10057800E4013F30EA006A08E500E601FF30EB00DD
:100588006B08E7008631572682314001EC006C0881
:10059800FD00460195017D089900FF309D00FB2A6A
:1005A8003F307D02031CD92ADA2AFB2A7D08E8009D
:1005B800E9016808E2006908E3003F30EA006A08D8
:1005C800E4007F30EB006B08E500E601FF30EC004B
:1005D8006C08E7008631572682314001ED006D082E
:1005E800FD0046019501FF3099007D099D00080036
:1005F80041012708F3002608F2002508F100240825
:10060800F00087316A2782317308031D172B72089F
:10061800031D172B7108031D172B02307002031CD2
:10062800162B172B6B2B8731B327823173084101A7
:10063800A7007208A6007108A5007008A400400170
:10064800280A031D282B292B2A2BA6010230280251
:1006580003182F2B302B322BA601A60A2603031DC5
:10066800362B372B3C2B0130F8007808A807602B75
:100678002608031D402B412B602B0130A802602B5C
:100688004601950199014001280846019D006B2B00
:10069800460195014001280846019900472B46016B
:1006A800950140012808460199009D016B2B4601E0
:1006B800950199019D016B2B2408013A0319442BDC
:1006C800033A03194C2B013A0319532B5B2B0800EF
:1006D80041012B08F3002A08F2002908F100280834
:1006E800F00087316A2783317308031D872B72084E
:1006F800031D872B7108031D872B02307002031C12
:10070800862B872BD52B8731B3278331730841017B
:10071800AB007208AA007108A9007008A80040017F
:10072800290A031D982B992BA52BA9010130F80044
:100738007808A70703302702031CA32BA42BA52B9B
:10074800A7010130F8007808A9072708031DAD2B79
:10075800AE2BB62B29094601950040012908460110
:1007680099009D0140012703031DBB2BBC2BC62B01
:1007780046019501400129094601990040012908CF
:1007880046019D00023040012706031DCC2BCD2BCE
:10079800D52B2908460195009901400129094601F0
:1007A8009D0008004001DF01F71FDB2BDC2BE32B4A
:1007B800F609F709F60A0319F70ADF01DF0AF91F34
:1007C800E62BE72BF02BF809F909F80A0319F90ABF
:1007D8000130FA007A08DF06E001E10176087704C3
:1007E8000319F72BF82B272CDE01DE0A042C013025
:1007F800F635F70D890BFC2B0130FA007A08DE0775
:10080800F71F072C082CFB2B0130E035E10D890B75
:10081800092C77087902031D132C76087802031C2B
:10082800162C172C1C2C7608F8027708F93B601454
:100838000130F736F60C890B1D2C0130DE02031D42
:10084800262C272C082C5F0803192B2C2C2C312C38
:10085800E009E109E00A0319E10A6108F700600804
:10086800F60008000030FC000030FB000030FA0001
:100878000030F90073087204710470040319452CE0
:10088800462C872CFD01FD0A542C0130F035F10D62
:10089800F20DF30D890B4A2C0130F8007808FD079A
:1008A800F31F572C582C492C0130F935FA0DFB0D44
:1008B800FC0D890B592C73087702031D6D2C7208E7
:1008C8007602031D6D2C71087502031D6D2C7008CE
:1008D8007402031C702C712C7A2C7008F4027108B5
:1008E800F53B7208F63B7308F73B79140130F33691
:1008F800F20CF10CF00C890B7B2C0130FD02031D6E
:10090800862C872C582C7C08F3007B08F2007A0888
:10091800F1007908F000080040014108F30073086D
:10092800F100003087318027843140014008F3000E
:100938007308F100013087318027843140013F0876
:10094800F3007308F10002308731802784314001B9
:100958003E08F3007308F1000330873180278431A3
:1009680040013D08F3007308F10004308731802707
:10097800843140013C08F3007308F10005308731E9
:100988008027843140013B08F3007308F1000630EA
:1009980087318027843140013A08F3007308F10059
:1009A800073087318027843140013908F300730804
:1009B800F100083087318027843108004001141481
:1009C8009414F101212D0130F0007008F1078E1800
:1009D800EE2CEF2C032D14100E100B30F0006230AB
:1009E800890BF42CF00BF42C0032400114140B305A
:1009F800F0006230890BFE2CF00BFE2C0032400117
:100A08008E1C072D082DEB2C94108E100B30F00047
:100A18006230890B0D2DF00B0D2D0032400194141E
:100A28000B30F0006230890B172DF00B172D0032B8
:100A380040018E1C202D212DEB2C0A307102031C45
:100A4800262D272DE72C08008731CD2785310B303F
:100A58007E01A2000C30A3000D30A4008731BD2711
:100A6800853146019601FF3045018D00460195010B
:100A78003F3094008030960040011411F030460158
:100A880096009A0199013F30980080309A00400101
:100A98009411F03046019A009E019D013F309C0060
:100AA80080309E0040011412F03046019E00033051
:100AB800450190008E170E128E120E170E148E140A
:100AC8000E158E158C01FF308D004E019010080018
:100AD80041012308F3002208F2002108F100200850
:100AE800F00087316A2785317308031D872D720846
:100AF800031D872D7108031D872D32307002031CDA
:100B0800862D872D9E2D4001250803198C2D8E2DAD
:100B180001308F2D0030F8007808A5008731B32701
:100B2800853173084101A3007208A2007108A10071
:100B38007008A000400125080319A32DA42DAA2D93
:100B4800460195019901FF309D00AE2D46019501A2
:100B580099019D010800283043019000910140014E
:100B68005E08E2005F08E3006008E4006108E50051
:100B78000230E235E30DE40DE50D890BBD2D650866
:100B8800F3006408F2006308F1006208F000013025
:100B9800F700E830F6004830F5000030F400843102
:100BA800362485317008FF3E43018D0080308F0068
:100BB800080051018C13033050019200FF304001AE
:100BC8009200FF3094007E01B801CE013816203023
:100BD800B900CF3044018E050E118E148F130430E6
:100BE8009100FE308D00CC308C004E011A14440167
:100BF8000E144E01161620307E01BD002030BE00B6
:100C0800BF018B170B17080040015D08031D0D2E4F
:100C18000E2E132E4601950199019D01312E5D037B
:100C2800031D172E182E1C2E83316C238631312E6E
:100C380002305D06031D212E222E262E82318822A7
:100C48008631312E03305D06031D2B2E2C2E302EBF
:100C580085316C258631312EDD010800F70087319A
:100C6800E6278631D4308731C52786317708873122
:100C7800C52786318731E6278631D5308731C527A4
:100C880086310130873101278631F5007508F80073
:100C98008731E02786317808F500F6017508F300FA
:100CA8007608F4000800400164086502F600F701C0
:100CB800031CF7036408FB00FC017B086202F000D8
:100CC8007C08633BF10066086702F200F301031C2D
:100CD800F3038631E22686317108F9007008F800BE
:100CE8008331D623863176084001660708007A30BA
:100CF800F00070084001C1000630F0007008C00024
:100D08003130F0007008BF001A30F0007008BE00E3
:100D18006030F0007008BD001330F0007008BC00AF
:100D28005830F0007008BB00CD30F0007008BA00F1
:100D3800B901B90A0800F400603041019E00740846
:100D4800F2000130F235FF3E031DA62E7235013840
:100D58009D003430F200F230890BB02EF20BB02E29
:100D680041019D149D18B92EBA2EB62E1C08F2000A
:100D7800F3017208F0007308F10008000B308631A7
:100D8800322686317308F9007908FB007B08F900E0
:100D98000430F936890BCD2E79080739FA007A081C
:100DA8004001A3007B08F9000230F936890BD92EDF
:100DB80079080339FA007A08A4000800F401F5015B
:100DC800701CE72EE82EEC2E7208F4077308F53D28
:100DD8000130F235F30D890BED2E0130F136F00CB0
:100DE800890BF22E70087104031DFB2EFC2EE42ED5
:100DF8007508F1007408F0000800F1008731A72792
:100E08008731430191158731A727873143010C08A2
:100E1800F0007008F2008731A7278731710803199D
:100E2800162F172F1B2F8731EC2787311E2F87315D
:100E3800F027873172080800043086319F268731F1
:100E480000307102DE3003197002031C2C2F2D2F85
:100E5800392F4001C801941612156430F500750841
:100E6800F100093087318027873108001130863139
:100E7800322687317308F9007908FB007B08F900EE
:100E88000630F936890B452F79080139FA007A08B6
:100E98004001A1007B087F39F9007908A200080009
:100EA8004601950199019D0196139A139E134001DD
:100EB8000E158E150E168731CD2787317E01A201BA
:100EC800A301A4018731BD278731080070084101BB
:100ED8003C02F40071083D3BF50072083E3BF60009
:100EE80073083F3BF7007708F3007608F2007508AF
:100EF800F1007408F0000800F2008731E627873116
:100F0800D4308731C527873172088731C5278731A3
:100F180071088731C52787318731E0278731080075
:100F280001340234013401340134163403340134F9
:100F380060340534013401340134013406343A3460
:100F480001340134023443010F19AB2FAC2FA72F02
:100F580011081F39031DB12FB22FA72F0800410117
:100F68003F08F3003E08F2003D08F1003C08F0009D
:100F7800080055307D018F00AA308F0001308F00A6
:100F88000800F0008731A7278731700843018C00DB
:100F9800080055307D018F00AA308F008F010800AE
:100FA800FE0012001E00FE0BD52F003464008001E5
:100FB8000131890BDB2F00348731A72787314301A3
:100FC800111508008731A72787314301111408003C
:100FD80043019116111608004301911211160800D9
:020000040001F9
:0A000E008C3FFE37ED07FF1FFF3F98
:00000001FF
